:020000040800F2
:100000000008002001C000087125010881250108B1
:1000100091250108A1250108B125010861D3000837
:1000200061D3000861D3000861D3000861D30008E0
:1000300061D3000861D3000881E4000891F9000849
:1000400061D300084125010861D3000861D300088D
:1000500061D3000861D3000861D3000861D30008B0
:1000600061D3000861D3000861D3000821F40008BF
:1000700051F4000881F40008B1F40008E1F400082C
:1000800011F5000841F50008A124010851FC000801
:1000900071FC000891FC0008B1FC0008C1240108B3
:1000A000F117010861D3000861D3000861D300088B
:1000B00011250108E1240108D117010861D30008C6
:1000C00061D30008D1030108E104010861D30008ED
:1000D00061D30008511B0108711B0108911B010825
:1000E00061D3000861D3000861D3000861D3000820
:1000F00061D3000861D3000861D3000871F50008DE
:1001000061D3000861D3000861D3000861D30008FF
:10011000B11B0108D11B010861D3000861D300089D
:10012000A1F50008D1F5000801F6000831F6000835
:1001300061F6000861D3000861D30008D1FC000813
:10014000F1FC000811FD000831FD000881120108D2
:1001500091F60008C1F60008F1F60008F11B01084D
:1001600061D3000861D3000861D3000861D300089F
:1001700061D3000861D3000861D3000861D300088F
:1001800061D3000861D3000861D3000861D300087F
:1001900061D3000861D3000861D3000861D300086F
:1001A00061D3000861D3000861D3000861D300085F
:1001B00061D3000861D3000861D3000861D300084F
:1001C0002DE9F04F2DED068B0446F9B001468B4822
:1001D0004CF046F920468A49894C6AF091FB00268A
:1001E00038AD48B1402E08D045F826002146002001
:1001F0006AF086FB0136F4E70EB1002702E0814881
:1002000002F099B9389CE55D65B168F061FA28445F
:10021000437803F00303012B389B08BF2035DD55DD
:100220000137EFE7784BDFF84C82D3F80090A9450F
:1002300011DD2B0108EB0302D76857B153F8081002
:1002400020460DF00DF820B938A93046B84702F025
:1002500079B90135EBE76D4920460DF001F850B949
:100260006B484CF0FDF84FF47A7053F021FA53F0DC
:1002700027FA02F067B9674920460CF0F1FF38BB56
:1002800057F0C6FA9FED648A60EE087A17EE900A7E
:100290000CF0C2F802460B4660484CF0E1F852F010
:1002A000EFFD60EE087A17EE900A0CF0B5F8024602
:1002B0000B465B484CF0D4F852F0C2FE60EE087A70
:1002C00017EE900A0CF0A8F802460B4655480DE0D0
:1002D000554920460CF0C4FF60B956F0A9FE10EE57
:1002E000100A0CF099F8024650480B464CF0B8F84A
:1002F00002F028B94E4920460CF0B2FF88B91FA978
:100300000EF08EF804460EF023F8014649484CF0F2
:10031000A7F8214648484CF0A3F81F99474802F037
:100320000FB9474920460CF09BFF002849D14548AA
:10033000454E9FED468A464D4CF092F845484CF0AC
:100340008FF80DF09DFC0446204661F059F9D4F871
:1003500024802A6894ED097AB36A9B1A07EE903AD2
:10036000B8EE477AF8EE677A27EE087A0746C7EEC6
:10037000277A17EE900A0CF04FF8CDE90478CDE912
:100380000601E36C0393A369029394F82020324B97
:10039000324853F82230019394F82230013B009305
:1003A000D4E9023221464CF05BF800236362204618
:1003B0000DF076FC04460028C6D1B36A2B6002F02B
:1003C000B9B8274920460CF04BFF38B952F0D0F9A4
:1003D00052F0D6F90146234802F0B2B8224920462D
:1003E0000CF03EFF0546002840F003811F4E3368A5
:1003F000002B41D11E4802F09EB800BF7ED70608F0
:10040000EAD8060886D7060868300020CE5E0708BE
:100410009BD70608B0D7060800007A44C2D7060862
:10042000DFD7060805D806082AD806082DD80608FA
:100430004BD806084FD806086BD8060881D806089E
:10044000FEF106089ED80608181900200000C842D0
:100450005C3A0020ECD8060830D706083AD90608DE
:1004600058810708524D0708C0F00608583A002086
:1004700071D906086C30002052F07AF952F080F9F8
:1004800001469548954FDFF8E8A24BF0E9FF944804
:100490004BF0E6FF3368AB4242F354804FF04C0818
:1004A00008FB05F807EB0804607852F069F901468B
:1004B00050464BF0D5FF17F808108A484BF0D0FF94
:1004C00060680BF0A9FF02460B4687484BF0C8FF57
:1004D000A0680BF0A1FF02460B4684484BF0C0FF1A
:1004E000E0680BF099FF02460B4681484BF0B8FFDD
:1004F00060690BF091FF02460B467E484BF0B0FF5F
:10050000A0690BF089FF02460B467B484BF0A8FF21
:10051000E1697A484BF0A4FF216A79484BF0A0FFCB
:10052000D4ED0B7A94ED057A7648F8EEE77A67EE2B
:10053000877AFDEEE77A17EE901A4BF091FF616A29
:1005400071484BF08DFFA16A70484BF089FFE16A5A
:100550006F484BF085FF216B6E484BF081FF606B5D
:100560000BF05AFF02460B466B484BF079FF63785D
:10057000032B06D1A06B17F063FB014667484BF0D5
:100580006FFF4C2404FB0574E36B6BB364491FA835
:1005900069F08EFAE16B0DF18F0069F089FA236C36
:1005A0001BB91FA84BF05CFF1EE0236C012B08D188
:1005B000606C0BF031FF02460B461FA84BF050FF5A
:1005C00012E0236C022B0FD1606CA46C0BF024FFA3
:1005D0008046204689460BF01FFF4246CDE90001C8
:1005E0004B461FA84BF03CFF4E484BF039FF0135FE
:1005F00050E74D4920460CF033FE00285CD172B61E
:100600004A4B5A6A14924A4A516A1591596A16918C
:100610004FF08041496A17911968C1F30011189190
:100620001168C1F300111F9162B64248D3F83490AB
:10063000D3F83880DF6BDC6A566BD3F840A0956B3B
:1006400014994BF00DFF15993B484BF009FF179992
:100650003A484BF005FF159A1499169B384801EB60
:1006600042011944022391FBF3F1611A4BF0F8FEA9
:10067000494634484BF0F4FE414633484BF0F0FE17
:10068000394632484BF0ECFE214631484BF0E8FE4B
:10069000189930484BF0E4FE1F992F484BF0E0FECC
:1006A00031462E484BF0DCFE51462D484BF0D8FE2B
:1006B00029462C4801F044BF2B4920460CF0D0FDC0
:1006C000002857D152F054FA10EE100A0BF0A4FE95
:1006D00002460B46254809E695D90608EC3200206B
:1006E000A7D90608F0D9060806DA06081EDA0608B1
:1006F00036DA06084EDA060866DA06087EDA0608F2
:1007000094DA0608AADA0608C0DA0608D6DA060875
:10071000ECDA060802DB060818DB060830DB060800
:1007200046DB0608EAD806085ADB06080000014046
:10073000000401405EDB06086BDB060878DB060878
:1007400085DB060898DB0608A8DB0608B8DB060888
:10075000C8DB0608D0DB0608D9DB0608E2DB0608A2
:10076000F5DB06080ADC060820DC060825DC06089E
:10077000DAD90608BF4920460CF072FD002840F087
:10078000DA80042E40F0D480BB4BBC4939981393D7
:1007900013AA1493159369F053F914AAB7493A9818
:1007A0009FEDB78A69F04CF915AAB4493B9869F0F6
:1007B00047F9B4484BF054FEDDED137AF5EEC07AFC
:1007C000F1EE10FAF2EE048A6FDD51F099FF9DED23
:1007D000130AD0ED007AF4EEC07AF1EE10FA64DD7F
:1007E000DDED140AF4EEE80AF1EE10FA5DDDDFED5E
:1007F000A67AF4EEE70AF1EE10FA56D59DED151A39
:10080000B4EEC81AF1EE10FA4FDDDFEDA07AB4EEC7
:10081000E71AF1EE10FA48D518AB1FAA17A916A8C7
:1008200002F0B1F900283DD016980BF0F5FD024614
:100830000B4697484BF014FE17980BF0EDFD02465F
:100840000B4694484BF00CFE189B0BB9924802E003
:100850005F1C1CD191484BF003FE9DF9830004906E
:100860009DF9820003909DF9810002909DF980001E
:1008700001909DF97F0000909DF97E309DF97D20CB
:100880009DF97C1086484BF0EBFD01F05BBE9E1C91
:1008900002D1844801F04FBE033341F053868248B1
:1008A00001F049BE814801F046BE81484BF0D8FDB9
:1008B000DDED137AF5EEC07AF1EE10FA0ADC51F0B4
:1008C0001FFF00680BF0A8FD02460B4679484BF06D
:1008D000C7FD0AE051F014FFDDED137A90ED007AC8
:1008E000B4EEE77AF1EE10FAE9DDDDED147AF4EE1C
:1008F000E87AF1EE10FA06DD9FED637AF4EEC77A3E
:10090000F1EE10FA02D46C484BF0AAFDDDED157A39
:10091000F4EEC87AF1EE10FA07DD9FED5C7AF4EEA2
:10092000C77AF1EE10FA01F10586644801F036B895
:10093000634801F000BE634920460CF091FCC8B941
:100940001FA856F075FF1F980BF066FD02460B4678
:100950005D484BF085FD20980BF05EFD02460B468E
:100960005A484BF07DFD21980BF056FD02460B4690
:100970005748BBE4574920460CF072FC0546002856
:100980006CD1022E73D13C4B3C493998179317AA6E
:1009900069F056F85FF0FCFE044651F0B1FE4FF4EA
:1009A00035720146204667F0DBFE4B484BF058FDA0
:1009B000DDED177AF5EEC07AF1EE10FA4FF0000790
:1009C00042DD94ED007AF4EEC77AF1EE10FA3BD8EE
:1009D00027F096FB002833D094F8928084F8926038
:1009E000204654F075F99DED170A189716AB1FAA0B
:1009F00018A901201F978DF858505CF071FE204611
:100A000084F8928054F064F918980BF005FD0246C2
:100A10000B4632484BF024FD1F980BF0FDFC0246BC
:100A20000B462F484BF01CFD9DF858102D4A2E4BBD
:100A30002E4800290CBF114619464BF011FD0BE062
:100A40002B484BF00DFD07E020680BF0E5FC02465B
:100A50000B4628484BF004FD204643E22649204639
:100A60000CF0FEFB002840F0A180022E48D0234865
:100A700001F061BD3ADC0608000080BF47DC0608D3
:100A80000AD7A33C4ADC060800803B45CDCC4C3F4E
:100A90006BDC060888DC06089EDC0608DADC060843
:100AA000BADC0608F8DC060826DD060855DD06086F
:100AB0008DDD0608A1DD0608C6DD0608E7DD0608AF
:100AC00009DE060845DE06084DDE060863DE060878
:100AD00081DE06089CDE0608AFDE0608C4DE0608D6
:100AE000D4DE060875D7060870D70608E4DE0608C7
:100AF000F3DE060809DF060873DF060844DF060890
:100B0000B74BB8493998189318AA68F099FF5FF065
:100B10003FFE044651F0F4FD4FF435720146204685
:100B200067F01EFE5FF034FE054651F0E9FD4FF41C
:100B300035720146284667F013FEAB484BF090FC37
:100B4000DDED187AF5EEC07AF1EE10FA25DD94EDC0
:100B5000007AF4EEC77AF1EE10FA1ED8204684F837
:100B6000926054F0B5F800231FAA01214FF4FA60F7
:100B70009DED180A1F935DF0C3F840B91F980BF064
:100B80004BFC02460B4699484BF06AFCA3E1C0B20D
:100B900051F0F6FD0146964898E120680BF03CFCC8
:100BA00002460B4693484BF05BFC97E19249204686
:100BB0000CF056FB00285CD1022E71D1884B89497C
:100BC0003998169316AA68F03BFF8C484BF048FC06
:100BD000DDED167AF5EEC07AF1EE10FA46DD9FED06
:100BE000887AF4EEC77AF1EE10FA3FD85FF0D0FDC4
:100BF000044651F085FD4FF435720146204667F0FA
:100C0000AFFD5FF0C5FD054651F07AFD4FF435723A
:100C10000146284667F0A4FD204684F8926054F00F
:100C200057F81FAB18AA17A94FF4C8709DED160A04
:100C30005DF026F9A0B91F980BF0EEFB0646179859
:100C40000F460BF0E9FBCDE9020118980BF0E4FB2D
:100C50003246CDE900013B466A484BF001FC3AE1DF
:100C6000C0B251F08DFD014667482FE1674801F0A1
:100C700062BC674920460CF0F3FAA0B165492046F2
:100C80000CF0EEFA002800F0DB80634920460CF0FF
:100C9000E7FA0546002840F00182022E00F0268186
:100CA0005E4801F048BC052E40F097804C4B4D4902
:100CB0003998159315AA16931793189368F0C0FEE8
:100CC00016AA48493A989FED568A68F0B9FE17AAC5
:100CD00044493B9868F0B4FE18AA42493C9868F031
:100CE000AFFE50484BF0BCFBDDED157AF5EEC07A57
:100CF000F1EE10FA2BDD51F003FD9DED150AD0ED5C
:100D0000007AF4EEC07AF1EE10FA20DB9DED171AAE
:100D1000B5EEC01AF1EE10FA19DDDDED160AF4EEAB
:100D2000C80AF1EE10FA12DDDFED357AF4EEE70ACB
:100D3000F1EE10FA0BD8DDED181AF5EEC01AF1EE4F
:100D400010FA04DB1FA802F0D1F81F9876E13648AC
:100D50004BF086FBDDED157AF5EEC07AF1EE10FA78
:100D60000ADC51F0CDFC00680BF056FB02460B4646
:100D70002E484BF075FB0AE051F0C2FCDDED157A10
:100D800090ED007AB4EEE77AF1EE10FAE9DBDDEDF2
:100D9000167AF4EEC87AF1EE10FA06DD9FED187AB5
:100DA000F4EEC77AF1EE10FA02D921484BF058FB65
:100DB000DDED177AF5EEC07AF1EE10FA02DC1D488F
:100DC0004BF04EFBDDED187AF5EEC07AF1EE10FA3D
:100DD00081F2B083184800F0E1BD184801F0ABBBC8
:100DE000000080BF47DC06087FDF060897DF0608A3
:100DF000ADDF060809DF060813E006081FE0060855
:100E00006666663F37E006086AE0060897E006086F
:100E1000F8E00608F9E10608A7E20608CCE00608B3
:100E20000AD7A33C08E1060836E10608A1DD06085A
:100E30004BE106086DE106088BE10608AFE1060804
:100E40005FF0A6FC044651F05BFC4FF4357201469E
:100E5000204667F085FC5FF09BFC054651F050FC96
:100E60004FF435720146284667F07AFC022384F875
:100E70009230204653F02CFF79484BF0F1FA0023D2
:100E80001FAA18A917A8179318931F935DF0C8FB02
:100E9000B8B917980BF0C0FA02460B4671484BF0F0
:100EA000DFFA18980BF0B8FA06461F980F460BF0B9
:100EB000B3FA3246CDE900013B466B484BF0D0FA1D
:100EC00009E0C0B251F05CFC014668484BF0C8FA3A
:100ED00067484BF0C5FA284653F0FAFE20465FF00B
:100EE00087FC28465FF084FC01F02CBB614B624913
:100EF00039981F931FAA68F0A3FD60484BF0B0FA21
:100F0000DDED1F7AF5EEC07AF1EE10FA40F3A48021
:100F10009FED5B7AF4EEC77AF1EE10FA00F29C8056
:100F20005FF036FC044651F0EBFB4FF4357201469E
:100F3000204667F015FC5FF02BFC074651F0E0FB04
:100F40004FF435720146384667F00AFC022384F8F4
:100F50009230204653F0BCFE12F0FAF8804612F0B0
:100F6000FFF8B0EE40AA12F003F9814612F0B8F88B
:100F700000219FED440A9FED448A4EF6602012F056
:100F800097F807EE905AF8EEE77A87EE880ADDEDDB
:100F90001F7A20EE270A52F0EBFB51F0E9FB0646E0
:100FA00028B9C82001350CF033FD642DE9D19FED3F
:100FB000358A4FF47A75F0EE488AB0EE489AF0EE32
:100FC000489AF7EE00AA5CF00BFB79EE809A51F09C
:100FD000B7FC39EE009A51F04BFD0A2038EE008A3A
:100FE0000CF016FD013D78EEAA8AECD152F0F8FE25
:100FF000B7EE000A51F014FC384653F069FE204663
:101000005FF0F6FB38465FF0F3FB4946B0EE4A0A64
:10101000404612F04DF8C8EE287A89EEA87AD4ED51
:10102000386AA6EEE77AC9EE287ADFED186A67EE2D
:10103000A67AC7EE276A46B916EE900A0BF0ECF9CD
:1010400002460B461248FFF751B9F0B251F098FB37
:101050000146104800F0D4BF0F4801F06CBA00BF41
:1010600009E2060830E2060845E206086BE20608D7
:10107000DCDF0608000080BF47DC0608BBE206088C
:101080006666663F000000000000C8425077D63D0B
:1010900022E10608D9E2060806E30608914920463F
:1010A0000CF0DEF8002840F0F280062E40F0EC80D4
:1010B0008D4B8E493998109310AA11931293139364
:1010C000149368F0BDFC11AA88493A989FED888A6C
:1010D00068F0B6FC12AA85493B9868F0B1FC13AAE7
:1010E00082493C9868F0ACFC14AA80493D9868F0AD
:1010F000A7FC80484BF0B4F9DDED107AF5EEC07A2C
:10110000F1EE10FA4FF000046FDD51F0F9FA9DEDA9
:10111000100AD0ED007AF4EEC07AF1EE10FA64DB3A
:101120009DED121AB5EEC01AF1EE10FA5DDDDDED9F
:10113000110AF4EEC80AF1EE10FA56DDDFED6E7A10
:10114000F4EEE70AF1EE10FA4FD8DDED131AF5EEE2
:10115000C01AF1EE10FA48DB9DED142AB5EEC02A54
:10116000F1EE10FA41DB1594169417940DF13F0639
:101170001FAD18AC0296019500940DF13E0317AA1D
:1011800016A915A802F0BEF840BB9DF83E3013B377
:1011900033780A9328680BF03FF9CDE908012068FD
:1011A0000BF03AF9CDE9060117980BF035F9CDE9C6
:1011B000040116980BF030F9CDE9020115980BF0F7
:1011C0002BF94E4B4E4ACDE900014E494E484BF0AB
:1011D00047F901F0B7B94D4801F0ADB9C0B251F0CF
:1011E000CFFA01464A4800F00BBF4A484BF038F9A5
:1011F000DDED107AF5EEC07AF1EE10FA0ADC51F06E
:101200007FFA00680BF008F902460B4642484BF0A3
:1012100027F90AE051F074FADDED107A90ED007ACA
:10122000B4EEE77AF1EE10FAE9DBDDED117AF4EED7
:10123000C87AF1EE10FA06DD9FED2F7AF4EEC77A48
:10124000F1EE10FA02D935484BF00AF9DDED127AC9
:10125000F5EEC07AF1EE10FA02DC31484BF000F9FD
:10126000DDED137AF5EEC07AF1EE10FA02DA2D48D0
:101270004BF0F6F8DDED147AF5EEC07AF1EE10FAE7
:1012800081F25881284889E3284801F054B9284957
:1012900020460BF0E5FF30B926484BF0E1F85EF050
:1012A00087F801F047B9244920460BF0D9FF002800
:1012B0004AD122484BF0D4F801205DF099FB011E81
:1012C0000DDB51F01DFA044651F012FA851E6942F9
:1012D0006941204601F014FC194801F02CB9194865
:1012E00001F02EB93AE30608000080BF47DC06088B
:1012F0000AD7A33C53E306086666663F76E3060812
:1013000094E30608B4E30608D4E3060832E40608CA
:1013100051E4060836E10608A1DD06084BE106089F
:1013200080E406088BE10608A8E40608CCE4060879
:101330002AE5060834E506083FE506084AE50608FA
:101340006EE5060875E50608A94920460BF088FFFA
:101350000246002840F0E5800721A648A64C4BF045
:101360007FF8A649A6484BF07BF8A648A64BA74AAB
:10137000A74900781B78127809780890A54800786A
:101380000790A54800780690A44800780590A448E6
:1013900000780490A34800780390A3480078029056
:1013A000A24800780190A24800780090A1484BF034
:1013B00057F8A14BA14A1978A14BA24800290CBFAC
:1013C000114619464BF04CF89F484BF049F852F043
:1013D00067F901469D484BF043F821699C486369D1
:1013E0004BF03EF894F8A0109A4849B24BF038F808
:1013F00094F80E1298484BF033F894F80D12974871
:101400004BF02EF851F074F9821E5342534115A946
:1014100016AA14A85BF0F4FD14980AF0FDFF044628
:1014200016980D460AF0F8FFCDE9020115980AF06A
:10143000F3FF2246CDE900012B4689484BF010F816
:1014400051F056F9811E4B424B411FAA18A917A80B
:101450005BF006FE17980AF0DFFF04461F980D4662
:101460000AF0DAFFCDE9020118980AF0D5FF22460A
:10147000CDE900012B467B484AF0F2FF51F038F9E4
:101480000238434243411FAA18A917A85BF000FE87
:1014900017980AF0C1FF04461F980D460AF0BCFFDA
:1014A000CDE9020118980AF0B7FF22462B46CDE994
:1014B00000016D484AF0D4FF4DF072F901466B48C7
:1014C0004AF0CEFF4DF05CFA014669484AF0C8FF89
:1014D00043A3D3E9002367484AF0C2FF42A3D3E9FC
:1014E000002365484AF0BCFF0022644B64484AF080
:1014F000B7FF5FF0F5F904465FF0E2F921460246D6
:10150000092360484AF0ACFF5FF002FA04465FF03E
:10151000DFF90223024621465B484AF0A1FF01F0B1
:1015200009B85A4920460BF09BFE002840F0BC80C9
:10153000032E52D1564B57493998189318AA1F9326
:1015400068F07EFA1FAA53493A9868F079FA52482F
:101550004AF086FFDDED187AF5EEC07AF1EE10FA6A
:101560001ADD51F0CDF8DDED187A90ED007AB4EE89
:10157000E77AF1EE10FA0FDBDDED1F7AF5EEC07AB7
:10158000F1EE10FA08DB11F0ABFDDDED1F0A9DED69
:10159000180A52F02DFBBCE040484AF061FFDDED37
:1015A000187AF5EEC07AF1EE10FA0ADC51F0A8F8DC
:1015B00000680AF031FF02460B4639484AF050FFF6
:1015C000C1E051F09DF8DDED187A90ED007AB4EEAF
:1015D000E77AF1EE10FAE9DBB5E0324800F0ABBF94
:1015E000000000E0FF9F64400000004066E64E40BF
:1015F00088E5060892E5060800000010A603070823
:10160000A2E506081B7AFF1F127AFF1F117AFF1F3F
:10161000107AFF1F1A7AFF1F197AFF1F187AFF1F0F
:10162000177AFF1F167AFF1F157AFF1F147AFF1F04
:10163000137AFF1FAFE50608104800207BD7060885
:1016400017E60608F1E5060809E606081BE606089F
:101650002BE606083BE606084CE606085DE60608AB
:101660006EE6060892E60608B6E60608E3E6060811
:10167000F9E6060810E7060832E70608008076401B
:1016800054E7060867E7060893E70608C0E7060878
:10169000000080BF47DC0608CDE7060836E10608F3
:1016A000A1DD060807E80608C04920460BF0D8FD72
:1016B000002855D1032E50D1BD4BBE4939981893FF
:1016C00018AA1F9368F0BCF91FAABA493A9868F0A3
:1016D000B7F9B9484AF0C4FEDDED187AF5EEC07AE4
:1016E000F1EE10FA1BDB9FEDB57AF4EEC77AF1EE5E
:1016F00010FA14D8DDED1F7AF5EEC07AF1EE10FA8B
:101700000DDB11F0EDFCDDED1F0A9DED180A52F026
:10171000EFFA51F02DF8002800F0148701E1A848F5
:101720004AF09EFEDDED187AF5EEC07AF1EE10FA81
:1017300006DB9FEDA27AF4EEC77AF1EE10FA02D939
:10174000A0484AF08DFEDDED1F7AF5EEC07AF1EE8D
:1017500010FA80F2EF869C4820E19C4800F0EBBE36
:101760009B4920460BF07CFD08BB022E1CD14FF09C
:10177000FF331FAA974939981F9368F061F996487B
:101780004AF06EFE1F9B002B0BDB382218A8314657
:101790008DF860208DF861304AF02AFE8F4800F005
:1017A000CABE8F4800F0C7BE8E4800F0C4BE8E4946
:1017B00020460BF055FD002837D1022E7FF457A9A3
:1017C0007B4B7C493998189318AA68F039F98748F7
:1017D0004AF046FEDDED187AF5EEC07AF1EE10FA29
:1017E00040F3DD8450F08CFF9DED180AD0ED007AB7
:1017F000F4EEC07AF1EE10FAC0F2D18401211FAAF2
:10180000084602F0D7F850B91F99002900F041822C
:10181000012900F04582022940F04D8247E2C0B222
:1018200050F0AEFF01467248EAE3724920460BF0E1
:1018300017FD002840F0F680042E40F0B3805C4B8A
:101840005C493998179317AA18931F9368F0F8F812
:1018500018AA58493A9868F0F3F81FAA55493B98D6
:1018600068F0EEF864484AF0FBFD9DED178A50F0F1
:1018700047FFD0ED007AB0EEC88AB4EEE78AF1EE09
:1018800010FA61D8DDED1F7AF5EEC07AF1EE10FAAC
:101890005ADB9FED5A7AF4EEC77AF1EE10FA53D87C
:1018A0009DED187ADFED567AB4EEE77AF1EE10FA94
:1018B0003CD811F015FCDDED1F0A9DED170A52F022
:1018C000D7F950F055FF002800F0CA8429E0142011
:1018D00001340CF09DF8C72C0DDDDDED187A77EEA4
:1018E000C87A344617EE900A0AF096FD02460B4677
:1018F00028464AF0B5FD38EE288ADDED187AF4EE78
:10190000C87AF1EE10FA18DD11F0EAFBDDED1F0ADE
:101910009DED170A52F0ACF950F02AFF0646002858
:10192000D5D050F02DFF0146364869E300249FEDE5
:10193000368A364DDFED368ADFE79FED330A52F007
:1019400057F8344800F0F7BD1D484AF089FD9DED79
:10195000178A50F0D5FED0ED007AB0EEC88AB4EE0A
:10196000E78AF1EE10FA09D950F0CAFE00680AF0D1
:1019700053FD02460B4628484AF072FDDDED1F7A02
:10198000F5EEC07AF1EE10FA07DB9FED1C7AF4EE6B
:10199000C77AF1EE10FA40F2CD8520484AF060FD9A
:1019A00000F0C8BD1E4800F0C6BD00BF3CE80608F8
:1019B000000080BF47DC06084EE806086666663F02
:1019C00036E106086BE806086DE106088CE80608B3
:1019D000BEE8060891DA0608D2E80608F6E8060826
:1019E000FDE8060826E9060855E906086EE9060836
:1019F0000CEA060836EA06084AEA06080000B4437C
:101A0000BD378635E5E70608000000006DEA0608E8
:101A10006F12033B7CEA060882EA0608A1EA060880
:101A2000C5EA0608C04920460BF01AFC002840F021
:101A3000AC80022E40F0B280BC4BBD4939981F9358
:101A40001FAA67F0FDFFBB484AF00AFDDDED1F7AD3
:101A5000F5EEC07AF1EE10FA40F3498150F048FEFD
:101A600001219DED1F0A0646084610F049FE014679
:101A70000546B1484AF0F4FC012050F031FE002D3B
:101A800065DBAE489FEDAE8A4AF0EAFC50F038FEC6
:101A9000044600680AF0C0FC02460B46A9484AF01A
:101AA000DFFCD4ED387A67EE887A17EE900A0AF0F8
:101AB000B3FC02460B46A4484AF0D2FC94ED367AB9
:101AC000DFEDA27A67EE277A17EE900A0AF0A4FCFF
:101AD00002460B469E484AF0C3FCD4ED397A67EEC5
:101AE000887A17EE900A0AF097FC02460B4699484E
:101AF0004AF0B6FC984B94F84C11984A9848002943
:101B00000CBF114619464AF0ABFC94F84C3143B176
:101B1000D4F850010AF080FC02460B4691484AF086
:101B20009FFC94F82C310BB98F4827E094F82C31A6
:101B3000022B01D18D4821E094F82C31012B01D1E9
:101B40008B481BE029468B484AF08AFC18E015F1C7
:101B50000A0F01D188480EE015F10B0F01D187481B
:101B600009E005F16400C0B250F00AFE0146844865
:101B70004AF076FC83484AF073FC83484AF070FCD4
:101B8000304650F0ADFD00F0DDBC804920460BF042
:101B900067FB002840F0AE80022E02D07C4800F0A7
:101BA000CABC624B624939981F931FAA67F048FF6D
:101BB00060484AF055FC9DED1F0AB5EEC00AF1EEF3
:101BC00010FA40F394809FED732A0021F0EE421A40
:101BD000B0EE421AF0EE420A012011F021F805465B
:101BE00001466D484AF03CFC002D67DB53489FEDF1
:101BF000548A4AF035FC50F083FD044600680AF030
:101C00000BFC02460B464F484AF02AFCD4ED387ACA
:101C100067EE887A17EE900A0AF0FEFB02460B4642
:101C200049484AF01DFC94ED367ADFED487A67EEBC
:101C3000277A17EE900A0AF0EFFB02460B46574848
:101C40004AF00EFCD4ED397A67EE887A17EE900AE6
:101C50000AF0E2FB02460B463E484AF001FC3E4BCE
:101C600094F84C113D4A3E4800290CBF11461946D4
:101C70004AF0F6FB94F84C3143B1D4F850010AF025
:101C8000CBFB02460B4637484AF0EAFB94F82C316E
:101C900013B9354800F04FBC94F82C31022B02D117
:101CA000324800F048BC94F82C31012B02D1304866
:101CB00000F041BC29462F4800F042BC15F10A0F44
:101CC00001D12D480EE015F10B0F01D12B4809E091
:101CD00005F16400C0B250F053FD014628484AF0B7
:101CE000BFFB28484AF0BCFB274800F024BC2C4826
:101CF00000F021BC2B4920460BF0B2FA002857D146
:101D0000294B986A0AF066FB05A3D3E900230AF081
:101D100009FD02460B462548FEF7E8BAAFF30080FE
:101D2000000000000088C34002EB0608000080BFEE
:101D300047DC060817EB06082CEB060837EB06080D
:101D400000007A4460EB06087DEB06080024744925
:101D50009DEB0608BBEB060870D7060875D706088A
:101D6000DAEB0608F3EB06088BE90608B5E9060886
:101D7000D6E90608F7E9060813EC060833EC06086E
:101D80005FEC0608DCDF060889EC06080BED0608A8
:101D9000D5EC06080000000024ED06082CED06082E
:101DA0009CEC06084EED06081819002055ED0608B3
:101DB000D84920460BF054FA0746002840F0F98134
:101DC000022E7EF454AED44BD4493998179317AAF7
:101DD00067F036FED2484AF043FBDDED177AF5EEA8
:101DE000C07AF1EE10FA40F3DA8150F089FCDDEDB3
:101DF000177A90ED007AB4EEE77AF1EE10FAC0F2BD
:101E0000CE8150F09DFC5EF0C3FC054650F078FC9E
:101E10004FF435720146284666F0A2FC95F89230E0
:101E200085F8926028460D9352F052FFBD49BE4896
:101E3000DFEDBE8A9FEDBE8A4CF0BAFBBD484CF088
:101E4000E7FBBD484CF0E4FBBC484CF0E1FBBC4870
:101E50004CF0DEFB11F044F950F082FC07EE107AF2
:101E6000DDED177AB8EEC70AF0EE480A20EE270A31
:101E700080EE280A51F0FCFE50F07AFC044630B99E
:101E80000A2001370BF0C4FDB7F57A7FE2D150F09C
:101E90002FFC831ED3F1000BDFF8E492D5F87C12FF
:101EA0004BEB030B5846D9F8003098471C22002111
:101EB000824618A866F084FCDFF8C8C2BCE80F00B0
:101EC0001FAF3E460FC69CE80F0086E80F00002CAF
:101ED0007DD14FF434739FED968ADFED9A9A9FED92
:101EE0009A9ADFED9A8A0C93A046D9F80030D5F87B
:101EF0007C12584698475045064616D0B8F1060F52
:101F000006DC18AB03EB880383ED008A08F10108B7
:101F1000002357F82320B24201D0013202D147F802
:101F2000236002E00133082BF3D100204CF090FB3A
:101F300006F0010300EE903AF8EEE00AB0EE480A2F
:101F400060EEA90A4CF094FB01204CF081FBC6F333
:101F5000400300EE903AF8EEE00AB0EE480A60EE78
:101F6000890A4CF085FB02204CF072FBC6F380031B
:101F700000EE903AF8EEE00AB0EE480A60EEA80AE9
:101F80004CF076FB03204CF063FB07EE906AB0EE5A
:101F9000480AF8EEE70A4CF06BFBF7EE007A38EEF1
:101FA000278A11F09DF850F0DBFBF0EE480A9DED1A
:101FB000170A51F05DFE50F0DBFB044638B9C8202B
:101FC0000BF026FD0C9B013BB2460C938DD150F0DB
:101FD000C7FB51F005FFB7EE000A50F021FC0D9B46
:101FE00085F89230284652F073FE28465EF000FCD9
:101FF00050F0AEFB44B1E0B250F0C2FB0146544891
:102000004AF02EFA534896E22346214657F82320F9
:102010000133013218BF0131082BF7D1062903D152
:102020004D484AF01DFA02E04C484AF019FADFED3B
:10203000408A9FED4B9A9FED4BAADFED4B9A18AD6E
:10204000D5ED007A043595ED007A77EEC77A013444
:10205000F4EECA7AF1EE10FA02D577EEA97AF7E734
:102060009FED427AF4EEC77AF1EE10FA02DD77EED8
:10207000E97AF7E7B0EEE78A18EE100A0AF0CCF931
:1020800002460B463A4821464AF0EAF9B4EE498A3C
:10209000F1EE10FAB4EE688A48BFB0EE489AF1EE5D
:1020A00010FAC8BFF0EE488A062CC9D178EEC97A7A
:1020B000B6EE007A27EE877AF1EE046AB4EEE67A9D
:1020C000F1EE10FA07D517EE100A0AF0A5F902464C
:1020D0000B4628485FE0F2EE046AF4EEE67AF1EE91
:1020E00010FA07D517EE100A0AF096F902460B46C9
:1020F000214850E0F2EE0E6AF4EEE67AF1EE10FAC4
:1021000042D517EE100A0AF087F902460B461B4823
:1021100041E000BF65ED0608000080BF47DC06080F
:1021200072ED060894ED0608A6ED060800007A4454
:1021300000000000ACED0608B3ED0608BAED060895
:10214000C1ED06085C8F823FB81E853F14AE873F05
:10215000CAED0608DCDF0608F9ED060828EE0608D9
:1021600000006144000034C30000B4430000344365
:1021700066EE060881EE0608BBEE060802EF0608CA
:10218000F416002060D3060817EE900A0AF044F90E
:10219000024642480B464AF063F94148CBE150F011
:1021A000AFFA00680AF038F902460B463D48FEF7E0
:1021B0009DB83D4920460BF053F80546E8B950F06C
:1021C0009FFA2946B0F8D042284653F049FB07460B
:1021D00016F0BEF8B0F87461284616F0B9F9A4B24A
:1021E00005463A46214631484AF03AF92A463146F0
:1021F0002F484AF035F92F489DE12F4920460BF032
:102200002FF810B916F004F89CE12C4920460BF089
:1022100027F848BB032E40F09581294B1F9018AA40
:1022200028493998189367F00BFC1FAA26493A9859
:1022300067F006FC9DED180ADFED247AB4EEE70A9C
:10224000F1EE10FA0EDDDFED227AB4EEE70AF1EEE0
:1022500010FA07D51F98003018BF012052F090FDEA
:102260001C4868E11C4866E11C4920460AF0F8FF5A
:1022700060B91B491B484AF0F3F81B491B484AF058
:10228000EFF81B491B484AF0EBF853E11A49204686
:102290000AF0E6FF90BB72B600BFFDE750EF0608FC
:1022A000CCEF060809DF06080EF0060812F0060853
:1022B0003FF006086DF00608B6F00608C7F00608FD
:1022C0000000FAC347DC060891DA06080000B4C330
:1022D0000000B44369EA0608DDF00608F0F00608DD
:1022E000F8F00608FFF006080EF1060837F10608B8
:1022F00046F106084CF106085BF1060894492046B1
:102300000AF0AEFF0546002840F018819148924C33
:10231000DFF89483914F924E4AF0A2F88C484AF02D
:102320009FF890484AF09CF88F484AF099F88F48F7
:102330004AF096F88E484AF093F88E484AF090F8A2
:102340008D484AF08DF88D484AF08AF88C484AF05A
:1023500087F88C484AF084F88B484AF081F88B481B
:102360004AF07EF88A484AF07BF88A484AF078F8C2
:1023700089484AF075F889484AF072F888484AF066
:102380006FF888484AF06CF887484AF069F887483F
:102390004AF066F886484AF063F886484AF060F8E2
:1023A00085484AF05DF885484AF05AF884484AF072
:1023B00057F884484AF054F883484AF051F8834863
:1023C0004AF04EF882484AF04BF882484AF048F802
:1023D00081484AF045F881484AF042F880484AF07E
:1023E0003FF880484AF03CF87F484AF039F87F4887
:1023F0004AF036F87E484AF033F87E484AF030F822
:102400007D484AF02DF87D484AF02AF87C484AF089
:1024100027F87C484AF024F87B484AF021F87348B2
:102420004AF01EF879484AF01BF879484AF018F843
:1024300078484AF015F878484AF012F877484AF098
:102440000FF877484AF00CF876484AF009F87648D1
:102450004AF006F875484AF003F875484AF000F863
:10246000744849F0FDFF744849F0FAFF734849F099
:10247000F7FF734849F0F4FF724849F0F1FF7248E2
:1024800049F0EEFF714849F0EBFF714849F0E8FF71
:10249000704849F0E5FF704849F0E2FF6F4849F0A5
:1024A000DFFF6F4849F0DCFF6E4849F0D9FF6E4806
:1024B00049F0D6FF6D4849F0D3FF6D4849F0D0FF91
:1024C0006C4849F0CDFF6C4849F0CAFF6B4849F0B1
:1024D000C7FF6B4849F0C4FF6A4849F0C1FF6A482A
:1024E00049F0BEFF694849F0BBFF694849F0B8FFB1
:1024F000684849F0B5FF684849F0B2FFD8F80030A5
:10250000AB4217DDE36893B1A26821681AB1634852
:1025100049F0A6FF02E0084649F0A2FF616819B140
:10252000304649F09DFF02E0384649F099FF0135F9
:102530001034E3E75A4849F093FF03E05948214635
:1025400049F08EFF79B0BDEC068BBDE8F08F00BF7F
:1025500085F1060865F106086C300020F6FB0608D8
:10256000280D070879F10608B0D706088AF1060891
:102570002AD80608B7F106084BD80608DFF1060886
:10258000FEF10608F3F106085881070806F206086E
:10259000C0F0060826F20608CE5E070867F20608B5
:1025A0005ADB06087AF2060820DC06089AF20608CA
:1025B000B6F20608E2F2060825F3060860F30608FC
:1025C00045DE060885F30608A2F30608BFF30608F1
:1025D00000F4060816F4060853F4060866F4060824
:1025E000BAF40608F2F4060832F506085CF50608A7
:1025F000F9E1060891F50608E7F5060802F606086F
:1026000039F606088AF60608C7F606082AE5060817
:1026100004F706083FE5060826F7060888E50608D9
:1026200052F706087CF706089AF70608C9F7060865
:10263000E9F7060818F8060836F806085DF80608EF
:1026400080F80608C3F80608F8F8060843F90608F3
:102650006AF9060892F90608E8F9060814FA060865
:102660006FFA06084EED0608A8FA0608DAFA060818
:10267000F1FA06080EF0060827FB0608B6F0060871
:102680003BFB060865FB06088FFB0608F0F0060812
:10269000ADFB06085BF10608CDFB0608F0FB06085B
:1026A000EAD8060825FC0608683000200000000073
:1026B00037B502EB410294B2054601A920465FF00E
:1026C0005FFA08B100200FE0601C0DF1060180B236
:1026D0005FF056FA0028F5D1BDF80420BDF80630A9
:1026E00043EA02432B60012003B030BD70B505689A
:1026F00041F288300E46144650F0DAFF50F0E0FF09
:10270000B0EE080A50F0E4FF30B304EB46045EF08C
:1027100057FFA4B210F04CFD62F00AF9F22062F00B
:102720001FF9290C20465FF01BFB092809D1601C0A
:10273000A9B280B25FF014FBA0F109035C425C41D6
:1027400000E0002462F004F910F062FD642050F013
:10275000AFFF5EF045FF00E00124204670BDF8B5F4
:1027600041F2883050F0A4FF50F0AAFFB0EE080A02
:1027700050F0AEFF054640B35EF022FF10F018FDAA
:1027800062F0D6F8F22062F0EBF8114E002441F22C
:10279000707706EB440316F814105B78381943EA97
:1027A000012180B25FF0DCFA092804D10134B4F5CC
:1027B000847FEED100E0002562F0CAF810F028FD19
:1027C000642050F075FF5EF00BFF2846F8BD00BF97
:1027D0000000001070B54FF45B620021ADF5067D7E
:1027E000594865F0EDFF584900230A4603F57A7011
:1027F00021F813000133B3F5B57FF7D140F226215C
:1028000003F2666022F8130001338B42F8D140F2E4
:10281000662103F6921022F8130001338B42F8D19F
:1028200040F2664103F63A5022F8130001338B421E
:10283000F8D1464A41F2707341F6780122F8023F1E
:1028400001339BB28B42F9D162F072F8F22062F050
:1028500087F85FF0BDF962F07BF8002541F27076F1
:1028600002AC70190DF1060180B25FF089F960B910
:10287000BDF806301A0A04F8152004EB45020135AC
:10288000B5F5847F5370ECD138E0314D314E4FF4C3
:1028900004720021204665F093FF2B68B34203D1F8
:1028A0006A68AB68C4E90123EB68B34203D12A69C3
:1028B0006B69C4E90423AB69B34204D18022264981
:1028C00009A865F04DFFD5F89C30B3420AD14FF40A
:1028D000B47222490DF1A90065F042FF95F8A030CD
:1028E00084F8A030D5F80932B34225D195F80D32DD
:1028F00084F80D3295F80E3284F80E32154B2360B1
:10290000E360A361C4F89C301E2384F809326B2372
:1029100084F80A326FF0760384F80B324FF40472B5
:10292000052321460A4884F80C3265F019FFFFF7A9
:1029300016FF0DF5067D70BD022384F80D3215F0EB
:10294000FFF884F80E02D9E7603A00202A430020FD
:10295000000000101E6B89051C000010A100001073
:102960001F2902D840F6B832A2E600207047FF299E
:1029700002D84FF47A629BE6002070471F2902D8E4
:1029800040F6B832B2E600207047FF2902D84FF473
:102990007A62ABE60020704770B5044694B000251B
:1029A00005F5FA600DF1020180B25FF0E9F860B957
:1029B000BDF802301A0A04F8152004EB450201356F
:1029C000BC2D5370ECD1012500E000252046B4F861
:1029D000746115F0BDFD864206D0172301A88DF85D
:1029E00005300FF0EDFD00E04DB9204613F010FA70
:1029F000044B93F80D22627693F80E32237014B0D4
:102A000070BD00BF0000001070B5044641F2883070
:102A100050F04EFE50F054FEB0EE080A50F058FE52
:102A2000064698B35EF0CCFD10F0C2FB204615F0D0
:102A30008FFDA4F8740161F07BFFF22061F090FF3C
:102A4000002504EB450314F815105B7805F5FA60D2
:102A500043EA012180B25FF083F9092803D10135EF
:102A6000BC2DEED100E0002661F072FF10F0D0FB2B
:102A7000642050F01DFE5EF0B3FD054B227883F814
:102A80000E22627E83F80D22FFF769FE304670BD8C
:102A900000000010F0B541F2883695B005460F46AB
:102AA000002908BF4FF47A76002430190DF1020195
:102AB00080B25FF065F868B9BDF802301A0A05F80F
:102AC000142005EB44020134B4F5B57F5370ECD10A
:102AD000012400E0002439462846B5F8D06252F0BF
:102AE000BFFE864206D0182301A88DF805300FF0EE
:102AF00067FD00E014B9284612F0EAFE15B0F0BDFB
:102B0000F8B5054641F288300C4650F0D1FD50F042
:102B1000D7FDB0EE080A50F0DBFD064688B35EF044
:102B20004FFD10F045FB002C2146284641F2883726
:102B300008BF4FF47A7752F093FEA5F8D00261F007
:102B4000F7FEF22061F00CFF002405EB440315F8BA
:102B500014105B78381943EA012180B25FF000F964
:102B6000092804D10134B4F5B57FEED100E0002688
:102B700061F0EEFE10F04CFB642050F099FD5EF029
:102B80002FFD3046F8BD2DE9F04F2DED088B85B0B7
:102B9000B0EE609AF0EE409AF0EE41AA0393CDE9D0
:102BA000011282465DF0F4FD04465DF0F1FD06463B
:102BB0004FF0A6FD4FF435720146204665F0D0FD7A
:102BC0004FF435722146304665F0CAFDC14AC4F85B
:102BD000AC20C14AC4F8A0200023C04A84F8923037
:102BE000F7EE008A84F8933084F89130C4ED298A96
:102BF00084ED259AC4F8982084F85D32204652F07E
:102C000067F84FF4FA754FF0B3FD20B164200AF075
:102C1000FFFE013DF7D142F210700AF0F9FE10F00C
:102C200097FA804610F09CFAB0EE40AA10F0A0FA95
:102C3000814610F055FA00219FEDA90A4EF660205A
:102C400010F036FA4FF07CFD4FF08AFDB0EE690AC5
:102C500050F0CEFE0025B5EE008A012D0FD14FF0C9
:102C60007FFD51F0BDF8B7EE000A4FF0D9FD79EEC7
:102C7000097A9C4BC4ED257AC4F8A03012E0022DED
:102C80001FD14FF06DFD51F0ABF8B7EE000A4FF0D9
:102C9000C7FDF1EE007A69EE277A0123C4ED257AAB
:102CA00084F891304FF05CFD204652F011F842F26A
:102CB00010700AF0ADFE4FF053FDB0EE690A50F00F
:102CC00097FE4FF0000B5F46B6EE00BA4FF0F8FDEE
:102CD000B4EECB0AF1EE10FA20D50A200AF098FEE5
:102CE0004FF0EEFDB4EEC80AF1EE10FA07F101075D
:102CF00007DBBBF1000F40F0E280012054F0B0FD93
:102D0000DDE0B7F5FA6FE1DDBBF1000F0BD041F26A
:102D100088339F420DD04FF0010BD7E7BBF1000F76
:102D20001ED14FF0010B0135032D96D1BBF1000FE1
:102D300016D19FED6B0A50F05BFE4946B0EE4A0A91
:102D4000404610F0B5F9304651F0C2FF4FF000FD9B
:102D500020465DF04DFD30465DF04AFD0020B3E0B9
:102D600054F086FD4FF0FCFCB6EE000A50F000FD7A
:102D70004FF47A600AF04CFE4FF0F2FC9FED580AD7
:102D800050F036FE00204FF05BFF4FF4FA65074627
:102D900000204FF055FFC01B022806DC0A200AF075
:102DA00037FE013DF4D1012500E0022554F020FD5D
:102DB00000204FF045FF40F6B837834600204FF023
:102DC0003FFFA0EB0B00312805DC0A200AF020FEB3
:102DD000013FF3D100E00135029854F051FD039B0F
:102DE000186054F005FD41F288378AED000A4FF073
:102DF00067FDB4EEEA0AF1EE10FA05DD0A200AF0EA
:102E000007FE013FF3D100E001354FF0A9FCB0EE21
:102E10006A0A50F0ADFC54F0EBFC00204FF010FFBC
:102E20009FED2F8A834640F6B837F0EE489A00208F
:102E30004FF006FFA0EB0B0063280BDC4FF080FD8A
:102E40000A2079EE809A0AF0E3FD013F38EE288AE5
:102E5000EDD100E0013554F0CBFCB0EE409A4FF0DC
:102E60007FFC50F0BDFFB7EE000A4FF0D9FC1E4BBF
:102E7000DAED007ADB8A39EE679A07EE903AF8EEDF
:102E8000677AC9EE888A019B304689EE277A68EE18
:102E9000878AC3ED008A51F01BFF4946B0EE4A0A0B
:102EA000404610F005F94FF053FC20465DF0A0FCC1
:102EB00030465DF09DFC6B1F5842584104E0B7F569
:102EC000FA6F3FF724AF26E705B0BDEC088BBDE8ED
:102ED000F08F00BF00009643000048420080894404
:102EE000000000000000A041C03C01202DE9F04F8F
:102EF0002DED0A8B83B0F0EE418AB0EE408AB0EE41
:102F0000609AB0EE61AA01905DF042FC04465DF06B
:102F10003FFC06464FF0F4FB4FF435720146204665
:102F200065F01EFC4FF435722146304665F018FC02
:102F3000002384F8923084F8933084F89130A54BC4
:102F4000C4F86432A44BC4F8AC30A44BC4F8A0302D
:102F5000F7EE00AAA24BC4ED29AAC4ED258AC4F855
:102F60009830204651F0B4FE4FF4FA754FF000FC53
:102F700020B164200AF04CFD013DF7D14FF0F8FB81
:102F8000054618B1304651F0A3FEABE042F2107096
:102F90000AF03EFD10F0DCF8074610F0E1F8F0EE24
:102FA000409A10F0E5F8804610F09AF829469FED17
:102FB0008D0A9FED8DBA4EF6602010F079F84FF033
:102FC000BFFB4FF0CDFBB0EE480A50F011FD4FF0C3
:102FD000010B012D0AD14FF0C3FB50F001FFB7EEFA
:102FE000000A4FF01DFC84ED28BA23E0022D0FD11A
:102FF0004FF0B6FB50F0F4FEB7EE000A4FF010FCB5
:1030000078EEA87A794BC4ED257AC4F8A03011E0A7
:10301000032D1ED14FF0A4FB50F0E2FEB7EE000AE4
:103020004FF0FEFBF1EE007A68EEA77A84F891B0DB
:10303000C4ED257A4FF094FB204651F049FE42F250
:1030400010700AF0E5FC4FF08BFBB0EE480A50F030
:10305000CFFC4FF00009CA46F6EE00BA4FF030FC44
:10306000B4EEC90AF1EE10FA22D50A200AF0D0FC1B
:103070004FF026FC69EE2B7A0AF1010AB4EEE70A5A
:10308000F1EE10FA07DBB9F1000F40F09880012053
:1030900054F0E6FB93E0BAF5FA6FDFDDB9F1000F0B
:1030A0000BD041F288339A450DD04FF00109D5E796
:1030B000B9F1000F1ED14FF001090135042D88D15F
:1030C000B9F1000F16D19FED470A50F091FC41462F
:1030D000B0EE690A38460FF0EBFF204651F0F8FDDC
:1030E0004FF036FB20465DF083FB30465DF080FB01
:1030F000002069E04FF034FBB0EE490A9FED398AB9
:10310000DFF8FCB09FED3ACADFED3ABA50F030FB81
:103110004FF4FA6AF0EE488AB0EE48BAB0EE489A38
:10312000BBF816309DB24FF0CBFB07EE905AF8EE8D
:10313000677A67EE8C7A67EEAB7AA7EE809A4FF0EB
:10314000FFFB3BEE00BA4FF063FC0A2078EE808A6A
:103150000AF05EFCBAF1010A38EE2A8AE0D1414653
:10316000B0EE690A38460FF0A3FF304651F0B0FDCB
:103170004FF0EEFA9FED1B0A50F03AFCC8EE881AA9
:10318000019B204689EE087A6AEE611AF0EE007A19
:10319000A1EEA77ACBEE087ADFED176A67EEA67A82
:1031A000DFED166A67EEA67AC7EE276AC3ED006AFE
:1031B0005DF01EFB30465DF01BFB012004E0BAF51C
:1031C000FA6F3FF76EAF70E703B0BDEC0A8BBDE856
:1031D000F08F00BF00401C460000964300004842AC
:1031E000008089440000000000007A430000A041F4
:1031F0006740533A74D195415077D63DD7B3DD3F00
:10320000C03C0120DFED377AC0EEA70AB7EE007AA6
:10321000C7EE207A9FED347A67EE877A9FED337A96
:1032200027EE877AB4EEC07AF1EE10FA0ADB80EE70
:10323000277A82B0FCEEC77ACDED017A9DF80400C2
:1032400002B070479FED2A7A27EE877AB4EEC07AF3
:10325000F1EE10FA0EDB37EEA77AC0EE077A9FED9B
:10326000257A77EEC77AFCEEE77A17EE900A60F0DF
:103270007F0018E09FED207A27EE877AB4EEC07ABF
:10328000F1EE10FA11DBB2EE007A27EE877AC0EE8B
:10329000077A9FED1A7A77EEC77AFCEEE77A17EE97
:1032A000900A60F03F00C0B270479FED157A27EE9C
:1032B000877AB4EEC07AF1EE10FA10DBB3EE007A42
:1032C00027EE877AC0EE077A9FED0C7A77EEC77A01
:1032D000FCEEE77A17EE900A60F01F00E3E7FF20AC
:1032E000704700BF0024744900007A440000FE4289
:1032F00000007E43000080420000FC4300000042CA
:1033000000007C442DE9F04F2DED108B87B0CDE906
:103310000132DDF88090019A00910023F0EE40BA6E
:10332000B0EE60BAB0EE41CAF0EE61AAB0EE42AAC9
:1033300080461370B9F1000F02D0B04BC9F80030CD
:10334000219B13B1219AAD4B1360229B13B1229A9A
:10335000002313704FF0D4F9D0ED8A7AF0EEEB8AA7
:10336000F4EEE78AF1EE10FA11D8F5EEC0AAF1EE0C
:1033700010FA03D84FF0C4F9D0ED38AAB5EEC0AAC0
:10338000F1EE10FA03D84FF0BBF990ED36AAF5EE46
:10339000C0AAF1EE10FA40F20683B5EEC0AAF1EE33
:1033A00010FA40F20083DFED967A2AEE279A2AEE91
:1033B000A78A5DF0EDF905465DF0EAF907464FF0A2
:1033C0009FF94FF435720146284665F0C9F94FF46C
:1033D00035722946384665F0C3F9D5ED197A9FED67
:1033E000897A85ED2F9A67EE877A0223F4EE4B7A7D
:1033F00085F89230B7EE009A0023F1EE10FA85F8C6
:103400002C3185ED308A85F8583185ED959A28461E
:1034100048BFB0EE67BA51F05BFC4FF4FA744FF05E
:10342000A7F920B164200AF0F3FA013CF7D14FF07C
:103430009FF9044600287AD142F210700AF0E8FAA7
:103440000FF086FE82460FF08BFEF0EE409A0FF0F2
:103450008FFE9FED748A83460FF042FE2146B0EE48
:10346000480A4EF660200FF023FE4FF069F9D5EDC3
:103470008A7AF4EEE78AF1EE10FA40F36381DFED29
:10348000628A4FF06DF907EE904AB8EEE70AF0EE67
:10349000480A20EE2B0A80EE280A50F0A9FB4FF0D4
:1034A00067F9C8B15946B0EE690A064650460FF0B2
:1034B000FFFD4FF04DF950F093FCB7EE000A4FF0CE
:1034C000AFF9384651F004FC28465DF091F93846D2
:1034D0005DF08EF9344667E20A2001340AF098FA6A
:1034E000C82CCED19FED4F8A4FF47A76F0EE488A01
:1034F0004FF0E6F90A20B0EEC00A78EE808A0AF0B2
:1035000087FA013E38EE098AF2D14FF031F90446CC
:10351000B8B1B0EE690A594650460FF0C9FD4FF0F8
:1035200017F950F05DFCB7EE000A4FF079F9384614
:1035300051F0CEFB28465DF05BF938465DF058F956
:1035400032E2C8EE88DA9FED378A9FED30EA9FEDD0
:1035500030DADFED30CAF0EE488A4FF0B1F9B0EE64
:10356000C00AB4EECB0AF1EE10FA72D5CCEE0E7AA8
:1035700078EEA78A4FF0F4F895F85D3213B1F1EECA
:10358000680A01E0F0EE680AB0EE6B0A50F030FB1A
:103590004FF0EEF808B10346EAE10A200AF038FAE3
:1035A0004FF08EF9B0EEC00AB4EE408AF1EE10FA98
:1035B00006F1010643F6982348BFB0EE408A9E42CA
:1035C00003D10E4BC8F8003043E0B6F57A6F39DD11
:1035D00068EE0D7AF4EEC07AF1EE10FA02DD4FF0EB
:1035E000404207E06DEEAC7AF4EECB7AF1EE10FAE1
:1035F00028DD094AC8F800201E462AE0000080BFE6
:10360000ABAA26446666663F0000484300007A4441
:103610003333333FCDCC8C3F000040C000803B466D
:103620000000FA43000000005077D63D0AD7A33CC3
:103630000000204235FA8E3C0000C843E02E65426F
:103640000000B4435FED0B7AF4EEE78AF1EE10FA76
:1036500083DB42F210700AF0DBF943F698239E42B6
:1036600072D01FED108A42F21076F0EE48BAB0EE3A
:1036700048BAB0EE48CAF0EE48CA59F0B1FF7CEE45
:1036800080CA59F0A5FF3CEE00CA59F099FE3BEE06
:1036900000BA59F08DFE01207BEE80BA38EE098A1F
:1036A0000AF0B6F94FF064F808B9013EE5D18CEEA6
:1036B000080A0446CCEE887A8BEE08CA8BEE88BAEC
:1036C00020EE000AA7EEA70A62F0D2FEB0EE408A12
:1036D0002BEE0B0AACEE0C0A62F0CAFE5FED2E7AFE
:1036E0005FED316AAAEEC08A284668EEA78AC8EE66
:1036F000287AEAEE407AC8ED007AC5ED38AA85ED61
:1037000036AAD8F80030C5F8E430D8ED007A67EE74
:10371000A77A86EEA77A85ED3A7A51F0D9FA41F286
:1037200088300AF075F94EF0E3FF831E5842584185
:1037300059F0FEFA1FED450A59F06AFB32200AF0F3
:1037400067F901E088ED008A24F032FCB0EE40DA3F
:1037500059F0C6FEF0EE40DA002C40F003811FED78
:103760004F8A1FED4FFA5FED4FEA1FED4FEA4FF41E
:10377000FA66F0EE48AAB0EE48AAB0EE48CAF0EEFB
:10378000488AF0EE48BAB0EE48BA59F0A1FD60EEB2
:103790000FCA59F0E5FCB0EEC00AB4EEEE0AF1EE45
:1037A00010FA00F1BC8059F01BFF80EE2C0A7AEE73
:1037B00080AA59F0ADFEF0EE40CA24F0F9FBF0EE1D
:1037C0004D0A0EF075FFB1EE047AF0EEC0FAF4EE99
:1037D000C7FAF1EE10FA19DBF0EE6D0A8DED030A6F
:1037E000B0EE6C0A0EF064FFF0EE40DA24F0E0FB7D
:1037F000DDED037A8DEEA77A3CEE09CA78EE878A72
:103800003AEE2FAAB0EE40DAF0EE6CDAB4EECEAAC1
:10381000F1EE10FA77DBF5EEC08AFFEE007AF1EEFA
:1038200010FAB7EE000A48BFB0EE670A28EE800A29
:1038300080EE0C0A62F044F8F0EE40FA24F0B8FB97
:10384000F5EEC08AF1EE10FA44BF5FED837A37EEF1
:10385000C00AF0EE6C0A20EE2F0A0EF029FF5FED91
:103860008B7A05A920EE270A04A862F0E9FDDDEDB8
:10387000047A3BEE27BADDED057A7BEEA7BA5FED61
:10388000927AB4EEE7AAF1EE10FA3CDB002C39D1C3
:10389000B9F1000F05D1219B4BB3219BC3ED00FA79
:1038A00025E0F0EE6B0AB0EE4B0A62F049FA5FEDEC
:1038B0009D7A1FED9D7A20EE270A89ED000AD9ED49
:1038C000007AF5EEC07AF1EE10FA04D577EE877A39
:1038D000C9ED007AF3E7D9ED007AF4EEC77AF1EE9C
:1038E00010FAD8DD77EEC77AC9ED007AF3E7229BAC
:1038F00043B1F5EEC08AF1EE10FA229A4CBF0123D3
:10390000002313700124012038EE098A0AF080F8A0
:103910004EF02EFF28B9013E7FF437AF01E00023BF
:1039200000E00346029AB5EEC08AF1EE10FA82ED8D
:10393000008A08DDCAEE887A009A0199C2ED007A01
:1039400001220A7002E0009900220A60D8ED007A94
:10395000F5EEC07AF1EE10FA02DD019901220A704B
:1039600033B100E02346009900220A60C8F8002025
:103970005946B0EE690A504600930FF099FB4EF09D
:10398000E7FE50F02DFAB7EE000A4EF049FF384638
:1039900051F09EF928465CF02BFF38465CF028FF7A
:1039A000009B1C4600E00024204607B0BDEC108BB5
:1039B000BDE8F08F2DE9F04F2DED068B4FF0FF3372
:1039C00089B01360F0EE408ACDE9000193465CF0C7
:1039D000DFFE05465CF0DCFE04464EF091FE4FF43F
:1039E00035720146284664F0BBFE4FF43572294615
:1039F000204664F0B5FE022385F89230002385F856
:103A00002C31B34BC5F8BC304FF07E53C5F8C030F5
:103A1000284651F05DF94FF4FA764EF0A9FE20B138
:103A2000642009F0F5FF013EF7D14EF0A1FE0646F5
:103A3000A8BB42F2107009F0EBFF0FF089FB814642
:103A40000FF08EFBB0EE408A0FF092FB82460FF033
:103A500047FB31469FED9F0A4EF660200FF028FB92
:103A600006AF4EF06DFE85F85C62284651F030F9E5
:103A70000DF10E013846B0EE680A5AF069FE0646AE
:103A8000B8B1B0EE480A514648460FF011FB4EF06F
:103A90005FFE50F0A5F9B7EE000A4EF0C1FE2046D9
:103AA00051F016F928465CF0A3FE20465CF0A0FE1B
:103AB00008E14EF045FE9DF80E200223002A00F09A
:103AC0009A8084F82C3184F85C6204F22D1233461B
:103AD000F95C02F8011B0133082BF9D1012354E0F2
:103AE0000A2008F1010809F093FFB8F57A7F40F049
:103AF0008C8024F05DFA9FED779AF0EE409A07EE05
:103B0000907AB42FB8EEE7AA40F0AC8024F050FAD7
:103B1000F0EE400AB0EE690A0EF0CAFDF0EEC06A9F
:103B2000B0EE490A0EF0C4FDF0EE007AF4EEE76A5A
:103B3000F1EE10FAB0EEC00A29DDF6EE007AA6EE3C
:103B4000E70AF5EE007A66EEA76AB4EEE60AF1EE51
:103B500010FA1CD50DF10F0305AA04A90020B0EE40
:103B6000680A59F0BDFD0499C4F8CC100599C4F851
:103B7000D410012202239DF80F1084F85C3284F8DF
:103B80002C2184F8D0108DF80E20CBF800309DF851
:103B90000E3033B984F82C31CBF8003001238DF886
:103BA0000E305146B0EE480A48460FF081FA4EF00A
:103BB000CFFD50F015F9B7EE000A4EF031FE204669
:103BC00051F086F89DF80E30002B3FF46BAF009B50
:103BD0003BB14EF08DFD831E594259412046FEF700
:103BE0008FFF019B002B3FF45DAF002221460E208A
:103BF00048F056FD56E785F85C32284651F068F8E3
:103C0000DFED359A9FED339AB0464EF0A9FD07EEF1
:103C1000908AB8EEE70AF0EE490A20EE280A80EE14
:103C2000290A50F025F84EF0A3FD074600283FF47E
:103C300057AF5146B0EE480A48460FF039FA4EF0F9
:103C400087FD50F0CDF8B7EE000A4EF0E9FD2046B2
:103C500051F03EF828465CF0CBFD20465CF0C8FDF4
:103C60003E462FE04EF07CFDF0EE4A0AB0EE680AC8
:103C70004FF0FEFF4EF07CFD8046C0B15146B0EEE5
:103C8000480A48460FF014FA4EF062FD50F0A8F8CA
:103C9000B7EE000A4EF0C4FD204651F019F8284650
:103CA0005CF0A6FD20465CF0A3FD46460AE032200B
:103CB00009F0AEFE5A2F03D124F07AF9B0EE409A03
:103CC00001371CE7304609B0BDEC068BBDE8F08F2C
:103CD0006F12033A0000000000007A449FED117A51
:103CE000D0ED366AD0ED397A20EE070AB7EE007AC9
:103CF00087EE006A90ED387A66EE866A26EE077ADD
:103D000067EEA77AC0ED2F6ADFED076A80ED307AA3
:103D100086EEA77ADFED057A67EE277AC0ED3A7A6C
:103D2000704700BFBD3786356F12833A002474494F
:10C0000072B6334880F3098840F20000CCF2000099
:10C010004EF63471CEF200010860BFF34F8FBFF3CC
:10C020006F8F40F20000C0F2F0004EF68851CEF261
:10C0300000010860BFF34F8FBFF36F8F4FF0000018
:10C04000E1EE100A4EF63C71CEF2000108600620C7
:10C0500080F31488BFF36F8F01F06AF90BF058FB7F
:10C060004FF055301B491C4A91423CBF41F8040B2C
:10C07000FAE71A49164A91423CBF41F8040BFAE725
:10C080001749184A184B9A423EBF51F8040B42F820
:10C09000040BF8E700201549154A91423CBF41F8CE
:10C0A000040BFAE701F04CF9124C134DAC4203DAE1
:10C0B00054F8041B8847F9E706F092F80F4C104D2E
:10C0C000AC4203DA54F8041B8847F9E701F040B9A1
:10C0D00000100020000000200008002000080020C0
:10C0E00018980708001000201819002018190020BF
:10C0F00090AA012000C0000800C0000800C000088D
:10C1000000C0000800000000000000000000000067
:10C110002DE9F04F2DED108AC1F80CD0D0F80CD0DD
:10C12000BDEC108ABDE8F08F62B62846A04700201B
:10C1300001F09EFC01F08CFB4EF60453CEF200039E
:10C140004FF080521A6062B6FEE700000000000067
:10C1500081F0004102E000BF83F0004330B54FEAB8
:10C1600041044FEA430594EA050F08BF90EA020F25
:10C170001FBF54EA000C55EA020C7FEA645C7FEAB8
:10C18000655C00F0E2804FEA5454D4EB5555B8BFDB
:10C190006D420CDD2C4480EA020281EA030382EA4C
:10C1A000000083EA010180EA020281EA0303362DDE
:10C1B00088BF30BD11F0004F4FEA01314FF4801CB1
:10C1C0004CEA113102D0404261EB410113F0004FC3
:10C1D0004FEA03334CEA133302D0524263EB43037A
:10C1E00094EA050F00F0A780A4F10104D5F1200E18
:10C1F0000DDB02FA0EFC22FA05F2801841F1000173
:10C2000003FA0EF2801843FA05F359410EE0A5F146
:10C2100020050EF1200E012A03FA0EFC28BF4CF077
:10C22000020C43FA05F3C01851EBE37101F000452D
:10C2300007D54FF0000EDCF1000C7EEB00006EEB3A
:10C240000101B1F5801F1BD3B1F5001F0CD34908C4
:10C250005FEA30004FEA3C0C04F101044FEA44521B
:10C2600012F5800F80F09A80BCF1004F08BF5FEAA2
:10C27000500C50F1000041EB045141EA050130BD82
:10C280005FEA4C0C404141EB010111F4801FA4F125
:10C290000104E9D191F0000F04BF01460020B1FA7A
:10C2A00081F308BF2033A3F10B03B3F120020CDAB2
:10C2B0000C3208DD02F1140CC2F10C0201FA0CF090
:10C2C00021FA02F10CE002F11402D8BFC2F1200CF5
:10C2D00001FA02F120FA0CFCDCBF41EA0C019040AB
:10C2E000E41AA2BF01EB0451294330BD6FEA0404F4
:10C2F0001F3C1CDA0C340EDC04F11404C4F12002DF
:10C3000020FA04F001FA02F340EA030021FA04F3F0
:10C3100045EA030130BDC4F10C04C4F1200220FA47
:10C3200002F001FA04F340EA0300294630BD21FA85
:10C3300004F0294630BD94F0000F83F4801306BF4B
:10C3400081F480110134013D4EE77FEA645C18BF3F
:10C350007FEA655C29D094EA050F08BF90EA020FD6
:10C3600005D054EA000C04BF1946104630BD91EACE
:10C37000030F1EBF0021002030BD5FEA545C05D1D1
:10C380004000494128BF41F0004130BD14F5800410
:10C390003CBF01F5801130BD01F0004545F0FE4184
:10C3A00041F470014FF0000030BD7FEA645C1ABFB9
:10C3B000194610467FEA655C1CBF0B46024650EAF0
:10C3C000013406BF52EA033591EA030F41F400211C
:10C3D00030BD00BF90F0000F04BF0021704730B5A2
:10C3E0004FF4806404F132044FF000054FF0000177
:10C3F00050E700BF90F0000F04BF0021704730B538
:10C400004FF4806404F1320410F0004548BF40420C
:10C410004FF000013EE700BF42004FEAE2014FEA61
:10C4200031014FEA02701FBF12F07F4393F07F4F3C
:10C4300081F06051704732F07F4208BF704793F03F
:10C440007F4F04BF41F40021704730B54FF4607452
:10C4500001F0004521F000411CE700BF50EA010255
:10C4600008BF704730B54FF000050AE050EA0102FE
:10C4700008BF704730B511F0004502D5404261EB6E
:10C4800041014FF4806404F132045FEA915C3FF4AF
:10C49000D8AE4FF003025FEADC0C18BF03325FEA4C
:10C4A000DC0C18BF033202EBDC02C2F1200300FAFD
:10C4B00003FC20FA02F001FA03FE40EA0E0021FA22
:10C4C00002F11444BDE600BF0000000000000000BF
:10C4D00070B54FF0FF0C4CF4E06C1CEA11541DBF1A
:10C4E0001CEA135594EA0C0F95EA0C0F00F0DEF8E5
:10C4F0002C4481EA030621EA4C5123EA4C5350EACA
:10C50000013518BF52EA033541F4801143F480131A
:10C5100038D0A0FB02CE4FF00005E1FB02E506F0AB
:10C520000042E0FB03E54FF00006E1FB03569CF000
:10C53000000F18BF4EF0010EA4F1FF04B6F5007F06
:10C5400064F5407404D25FEA4E0E6D4146EB060678
:10C5500042EAC62141EA55514FEAC52040EA5E5001
:10C560004FEACE2EB4F1FD0C88BFBCF5E06F1ED8AB
:10C57000BEF1004F08BF5FEA500E50F1000041EBE2
:10C58000045170BD06F0004646EA010140EA02008F
:10C5900081EA0301B4EB5C04C2BFD4EB0C0541EAB1
:10C5A000045170BD41F480114FF0000E013C00F3C6
:10C5B000AB8014F1360FDEBF002001F0004170BDEA
:10C5C000C4F10004203C35DA0C341BDC04F1140403
:10C5D000C4F1200500FA05F320FA04F001FA05F28F
:10C5E00040EA020001F0004221F0004110EBD3705C
:10C5F00021FA04F642EB06015EEA430E08BF20EA88
:10C60000D37070BDC4F10C04C4F1200500FA04F32A
:10C6100020FA05F001FA04F240EA020001F00041BC
:10C6200010EBD37041F100015EEA430E08BF20EA2F
:10C63000D37070BDC4F1200500FA05F24EEA020E77
:10C6400020FA04F301FA05F243EA020321FA04F0A6
:10C6500001F0004121FA04F220EA020000EBD3705D
:10C660005EEA430E08BF20EAD37070BD94F0000F5D
:10C670000FD101F00046400041EB010111F4801F91
:10C6800008BF013CF7D041EA060195F0000F18BF42
:10C69000704703F00046520043EB030313F4801F7E
:10C6A00008BF013DF7D043EA0603704794EA0C0F38
:10C6B0000CEA135518BF95EA0C0F0CD050EA41064E
:10C6C00018BF52EA4306D1D181EA030101F00041CB
:10C6D0004FF0000070BD50EA410606BF10461946F3
:10C6E00052EA430619D094EA0C0F02D150EA0136FF
:10C6F00013D195EA0C0F05D152EA03361CBF104640
:10C7000019460AD181EA030101F0004141F0FE41DE
:10C7100041F470014FF0000070BD41F0FE4141F462
:10C72000780170BD70B54FF0FF0C4CF4E06C1CEA62
:10C7300011541DBF1CEA135594EA0C0F95EA0C0F17
:10C7400000F0A7F8A4EB050481EA030E52EA0335D2
:10C750004FEA013100F088804FEA03334FF08055F3
:10C7600045EA131343EA12634FEA022245EA111520
:10C7700045EA10654FEA00260EF000419D4208BFD1
:10C78000964244F1FD0404F5407402D25B084FEA7E
:10C790003202B61A65EB03055B084FEA32024FF42A
:10C7A00080104FF4002CB6EB020E75EB030E22BF87
:10C7B000B61A754640EA0C005B084FEA3202B6EB47
:10C7C000020E75EB030E22BFB61A754640EA5C00F6
:10C7D0005B084FEA3202B6EB020E75EB030E22BF86
:10C7E000B61A754640EA9C005B084FEA3202B6EB87
:10C7F000020E75EB030E22BFB61A754640EADC0046
:10C8000055EA060E18D04FEA051545EA16754FEAA7
:10C8100006164FEAC30343EA52734FEAC2025FEAC5
:10C820001C1CC0D111F4801F0BD141EA00014FF054
:10C8300000004FF0004CB6E711F4801F04BF014325
:10C840000020B4F1FD0C88BFBCF5E06F3FF6AFAE41
:10C85000B5EB030C04BFB6EB020C5FEA500C50F1D1
:10C86000000041EB045170BD0EF0004E4EEA113154
:10C8700014EB5C04C2BFD4EB0C0541EA045170BD5B
:10C8800041F480114FF0000E013C90E645EA060E9F
:10C890008DE60CEA135594EA0C0F08BF95EA0C0FCD
:10C8A0003FF43BAF94EA0C0F0AD150EA01347FF415
:10C8B00034AF95EA0C0F7FF425AF104619462CE7EC
:10C8C00095EA0C0F06D152EA03353FF4FDAE10464F
:10C8D000194622E750EA410618BF52EA43067FF4A0
:10C8E000C5AE50EA41047FF40DAF52EA43057FF430
:10C8F000EBAE12E7000000000000000000000000A6
:10C900004FF0FF3C06E000BF4FF0010C02E000BF1B
:10C910004FF0010C4DF804CD4FEA410C7FEA6C5CFE
:10C920004FEA430C18BF7FEA6C5C1BD001B050EAA1
:10C93000410C0CBF52EA430C91EA030F02BF90EA8C
:10C94000020F0020704710F1000F91EA030F58BF4B
:10C95000994208BF90422CBFD8176FEAE37040F0AD
:10C96000010070474FEA410C7FEA6C5C02D150EA4B
:10C97000013C07D14FEA430C7FEA6C5CD6D152EA06
:10C98000033CD3D05DF8040B704700BF84461046CB
:10C9900062468C461946634600E000BF01B5FFF7CA
:10C9A000B7FF002848BF10F1000F01BD4DF808ED9A
:10C9B000FFF7F4FF0CBF012000205DF808FB00BF6B
:10C9C0004DF808EDFFF7EAFF34BF012000205DF8C5
:10C9D00008FB00BF4DF808EDFFF7E0FF94BF012012
:10C9E00000205DF808FB00BF4DF808EDFFF7CEFF13
:10C9F00094BF012000205DF808FB00BF4DF808ED52
:10CA0000FFF7C4FF34BF012000205DF808FB00BF22
:10CA10004FEA410C7FEA6C5C02D150EA013C0AD13A
:10CA20004FEA430C7FEA6C5C02D152EA033C02D12C
:10CA30004FF0000070474FF0010070470000000009
:10CA40004FEA410212F5001215D211D56FF4787336
:10CA5000B3EB625212D94FEAC12343F0004343EAD9
:10CA6000505311F0004F23FA02F018BF40427047B4
:10CA70004FF00000704750EA013005D111F000403E
:10CA800008BF6FF0004070474FF00000704700BFD4
:10CA90004A0011D212F5001211D20DD56FF478733D
:10CAA000B3EB62520ED44FEAC12343F0004343EA92
:10CAB000505323FA02F070474FF00000704750EADD
:10CAC000013002D14FF0FF3070474FF00000704747
:10CAD0004FEA4102B2F1E04324BFB3F5001CDCF1A0
:10CAE000FE5C0DD901F0004C4FEAC0024CEA5070D8
:10CAF000B2F1004F40EB830008BF20F00100704707
:10CB000011F0804F21D113F13872BCBF01F0004009
:10CB1000704741F480114FEA5252C2F11802C2F13B
:10CB2000200C10FA0CF320FA02F018BF40F00100BC
:10CB30004FEAC1234FEAD32303FA0CFC40EA0C006E
:10CB400023FA02F34FEA4303CCE77FEA625307D1AB
:10CB500050EA01331EBF4FF0FE4040F440007047E2
:10CB600001F0004040F0FE4040F40000704700BF7C
:10CB700080F0004002E000BF81F0004142001FBF92
:10CB80005FEA410392EA030F7FEA226C7FEA236C9B
:10CB90006AD04FEA1262D2EB1363C1BFD218414090
:10CBA00048404140B8BF5B42192B88BF704710F026
:10CBB000004F40F4000020F07F4018BF404211F0C9
:10CBC000004F41F4000121F07F4118BF494292EA31
:10CBD000030F3FD0A2F1010241FA03FC10EB0C005D
:10CBE000C3F1200301FA03F100F0004302D54942EA
:10CBF00060EB4000B0F5000F13D3B0F1807F06D397
:10CC000040084FEA310102F10102FE2A51D2B1F18E
:10CC1000004F40EBC25008BF20F0010040EA030083
:10CC20007047490040EB000010F4000FA2F1010230
:10CC3000EDD1B0FA80FCACF1080CB2EB0C0200FABA
:10CC40000CF0AABF00EBC25052421843BCBFD04008
:10CC50001843704792F0000F81F4000106BF80F482
:10CC600000000132013BB5E74FEA41037FEA226C45
:10CC700018BF7FEA236C21D092EA030F04D092F010
:10CC8000000F08BF0846704790EA010F1CBF002044
:10CC9000704712F07F4F04D1400028BF40F00040A1
:10CCA000704712F100723CBF00F50000704700F0C1
:10CCB000004343F0FE4040F4000070477FEA2262E8
:10CCC00016BF08467FEA23630146420206BF5FEAB9
:10CCD000412390EA010F40F4800070474FF00003B9
:10CCE00004E000BF10F0004348BF40425FEA000C80
:10CCF00008BF704743F0964301464FF000001CE028
:10CD000050EA010208BF70474FF000030AE000BF7D
:10CD100050EA010208BF704711F0004302D54042BB
:10CD200061EB41015FEA010C02BF8446014600202D
:10CD300043F0B64308BFA3F18053A3F50003BCFA48
:10CD40008CF2083AA3EBC25310DB01FA02FC6344F5
:10CD500000FA02FCC2F12002BCF1004F20FA02F2FC
:10CD600043EB020008BF20F00100704702F12002EF
:10CD700001FA02FCC2F1200250EA4C0021FA02F250
:10CD800043EB020008BF20EADC707047000000009F
:10CD90007BB972B90029BEBF00204FF0004106E008
:10CDA00008BF00281CBF6FF000414FF0FF3000F0BB
:10CDB0003FBAADF1080C6DE904CE002909DB002B68
:10CDC0001ADB00F0CDF8DDF804E0DDE9022304B061
:10CDD0007047404261EB4101002B1BDB00F0C0F8C3
:10CDE000DDF804E0DDE9022304B0404261EB4101DB
:10CDF000524263EB43037047524263EB430300F03C
:10CE0000AFF8DDF804E0DDE9022304B0404261EB55
:10CE100041017047524263EB430300F0A1F8DDF893
:10CE200004E0DDE9022304B0524263EB43037047A0
:10CE300053B94AB9002908BF00281CBF4FF0FF3181
:10CE40004FF0FF3000F0F4B9ADF1080C6DE904CEFD
:10CE500000F086F8DDF804E0DDE9022304B0704755
:10CE600007EE900AF5EEC07AF1EE10FA01D400F068
:10CE700027B808B580F0004000F022F8404261EB8E
:10CE8000410108BD0000000000000000000000009B
:10CE900038B50022002304460D46FFF791FD28B95E
:10CEA00020462946BDE8384000F032B8204605F15A
:10CEB000004100F02DF8404261EB410138BD00BF58
:10CEC000D0B5FFF7A9FA00220D4B06460F46FFF733
:10CED000FFFAFFF7DDFD0446FFF77CFA0022094B5D
:10CEE000FFF7F6FA02460B4630463946FFF734F9AB
:10CEF000FFF7CEFD0022234610431946D0BD00BFE8
:10CF00000000F03D0000F0410000000000000000C3
:10CF1000D0B500220D4B06460F46FFF7D9FAFFF7B2
:10CF2000B7FD0446FFF756FA0022094BFFF7D0FA87
:10CF300002460B4630463946FFF70EF9FFF7A8FDCB
:10CF40000022234610431946D0BD00BF0000F03D2B
:10CF50000000F041000000000000000000000000A0
:10CF60002DE9F047089E04468846002B4BD18A42A3
:10CF7000154667D9B2FA82F24AB1C2F1200701FA26
:10CF800002F320FA07F7954047EA030894404FEA76
:10CF9000154E230CB8FBFEF71FFA85FC0EFB178815
:10CFA00043EA084307FB0CF1994209D9EB1807F152
:10CFB000FF3080F01B81994240F21881023F2B44E0
:10CFC0005B1AA4B2B3FBFEF00EFB103344EA034439
:10CFD00000FB0CFCA44509D92C1900F1FF3380F0AB
:10CFE0000781A44540F2048102382C4440EA0740FE
:10CFF000A4EB0C0400271EB1D4400023C6E9004373
:10D000003946BDE8F0878B4209D9002E00F0EB804D
:10D010000027C6E9000138463946BDE8F087B3FA73
:10D0200083F7002F47D18B4202D3824200F2FA806D
:10D03000841A61EB030301209846002EE0D0C6E974
:10D040000048DDE702B9FFDEB2FA82F2002A40F0C2
:10D050008F80491B4FEA154E1FFA85F80127B1FB57
:10D06000FEFC230C0EFB1C1143EA014308FB0CF1F0
:10D07000994207D9EB180CF1FF3002D2994200F225
:10D08000CD808446591AA3B2B1FBFEF00EFB1014FA
:10D0900043EA044408FB00F8A04507D92C1900F125
:10D0A000FF3302D2A04500F2B6801846A4EB080474
:10D0B00040EA0C409FE7C7F1200CBB4022FA0CFE6F
:10D0C0004EEA030E01FA07F420FA0CF521FA0CF3EC
:10D0D0004FEA1E482543B3FBF8F92C0C08FB193323
:10D0E0001FFA8EFA44EA034309FB0AF49C4202FA4F
:10D0F00007F200FA07F10BD91EEB030309F1FF3029
:10D1000080F087809C4240F28480A9F10209734438
:10D110001B1BADB2B3FBF8F008FB103345EA034428
:10D1200000FB0AFAA24508D91EEB040400F1FF3304
:10D130006BD2A24569D90238744440EA0940A0FB89
:10D140000289A4EB0A044C45C2464B4654D351D045
:10D15000002E69D0B1EB0A0564EB030404FA0CFC61
:10D16000FD40FC404CEA0505C6E90054002747E7AE
:10D17000C2F1200320FA03F7954001FA02F021FAE8
:10D1800003F34FEA154E3843010CB3FBFEF71FFAC9
:10D1900085F80EFB173341EA034107FB08F38B4286
:10D1A00004FA02F407D9691807F1FF3C2FD28B4229
:10D1B0002DD9023F2944CB1A81B2B3FBFEF00EFBFE
:10D1C000103341EA034100FB08F38B4207D9691889
:10D1D00000F1FF3C17D28B4215D902382944C91AF5
:10D1E00040EA07473BE73746304609E70746E7E6A8
:10D1F0001846FBE64145ABD2B8EB020A69EB0E02DA
:10D2000001381346A4E76046E9E7184695E7674604
:10D21000D1E781467CE702382C4447E7ACF1020CA9
:10D220002B442FE7384608E73746E9E600000000C0
:10D23000704700BF00000000000000000000000078
:10D24000EC46A0E8F05F4FF000007047B0E8F05FF8
:10D25000E546080008BF0120704700BF000000003D
:10D2600010F8012B11F8013B012A28BF9A42F7D090
:10D27000D01A70470000000000000000000000000D
:10D28000034613F8012B002AFBD1181A0138704706
:10D2900001F0FF01102A2BDB10F0070F08D010F867
:10D2A000013B013A8B422DD010F0070F42B3F6D16B
:10D2B000F0B441EA012141EA014122F007047FF084
:10D2C00000070023F0E80256083C85EA010586EADB
:10D2D000010685FA47F5A3FA87F586FA47F6A5FA17
:10D2E00087F68EB9EED1F0BC01F0FF0102F0070223
:10D2F00032B110F8013B013A83EA010313B1F8D1CE
:10D300000020704701387047002D06BF35460338AE
:10D31000073815F0010F07D1013015F4807F02BFE7
:10D32000013015F4C03F0130F0BC0138704700BF38
:10D33000704700BF00000000000000000000000077
:10D34000704700BF00000000000000000000000067
:10D35000FEE700BF00000000000000000000000029
:10D36000FEE700BF00000000000000000000000019
:10D37000FEE700BF00000000000000000000000009
:10D380001F4B204A204830B500249C60D9684FF6D6
:10D39000FF0529400A43DA60C2681C491C4D42F06F
:10D3A0008072C2600A6842F0010283B00A6083F8AA
:10D3B000224000F00DF900F08BF800F019FC00F0AD
:10D3C00097FF00F0D5FF2846402100F051FAA5F163
:10D3D0003003104AC2610122986180F8202062B6B1
:10D3E0009B690D49996105F1580000940B4B4FF46E
:10D3F000F07100F09DFA0A4B836103B030BD00BFAD
:10D4000000ED00E00003FA05F0ED00E0001000E0A0
:10D41000481900200008002040D5060871D30008F4
:10D4200020D50608000000000000000000000000F9
:10D4300008B5044672B604F0FBFF014BDC62FEE760
:10D44000181900200000000000000000000000008B
:10D4500070B5124CA26992F8233013B1013B82F8E7
:10D460002330516AE3690E4E01315162A26AB34220
:10D4700002F10102A26210D09D68013D9D6065B974
:10D480001A68D968DD605660E26162B6186988473B
:10D4900072B6E3699A68002AF2D070BD18190020AC
:10D4A000341900200000000000000000000000000F
:10D4B000034A516853685B1A9842FBD8704700BF13
:10D4C000001000E00000000000000000000000006C
:10D4D000054B4FF0FF30002103F11C0258629962A6
:10D4E000C3E90722704700BF1819002000000000A0
:10D4F00030B40D4DEC690361A368C260994204D950
:10D500002468C91AA3688B42FAD36368C0E9004350
:10D51000186060608160A3684FF0FF32591AA16003
:10D520006A6230BC704700BF18190020000000007C
:10D53000036841689A6830B48568064C2A449A604A
:10D540000B60056800224FF0FF336960C2606362C0
:10D5500030BC7047181900200000000000000000D7
:10D5600072B690F82030072B0ED8DFE803F0270DB5
:10D570000D2308040D08826A936801339360D0E993
:10D5800000231A600268536010B400224FF0FF3489
:10D5900081680B4B846280F820201B689A688A425D
:10D5A000FBD25A68C0E900321060586062B65DF87C
:10D5B000044B7047836A00221A60E5E762B6704741
:10D5C000181900200000000000000000000000000A
:10D5D000034B0022C3E90033C3E904339A60704768
:10D5E00018190020000000000000000000000000EA
:10D5F00001460022074B806881F820201B689A684A
:10D600008242FBD25A680846C1E900321160596073
:10D61000704700BF18190020000000000000000043
:10D6200038B50F4CA569236885F82000042285F8D9
:10D6300023201A68226001215460A36183F820101E
:10D64000EFF30982E969643A914203D90548FFF78B
:10D65000EFFEA36929461846BDE83840FEF758BDDD
:10D660001819002030D50608000000000000000056
:10D6700030B54B1C87B012D00C4C0D4AA36905463F
:10D6800001A8FFF735FF2846FFF7CAFF049B13B137
:10D6900001A8FFF74DFFA369986A07B030BD034C9E
:10D6A000FFF7BEFFA369986A07B030BD18190020C4
:10D6B00061D500080000000000000000000000002C
:10D6C0001D4B70B59D698668AC688162A6424FF0BB
:10D6D00000020BD880F820201B689A689642FBD97C
:10D6E0005A68C0E900321060586070BD85F820208B
:10D6F0001A46126891688C42FBD9516869600446E9
:10D7000001202A600D6055609C6184F82000EFF3D1
:10D710000983EA69643B9A4205D829462046BDE858
:10D720007040FEF7F5BC0548FFF782FE294620460B
:10D73000BDE87040FEF7ECBC1819002030D5060893
:10D74000084A9369116893F8232088689B6822B976
:10D75000984234BF002001207047984294BF0020B7
:10D760000120704718190020000000000000000090
:10D77000154B1A6870B510689C691860A168436001
:10D780001D4601269A610420002382F8206084F857
:10D79000203084F823002B461B689A689142FBD9FD
:10D7A0005A68C4E9003214605C60EFF30983E269EF
:10D7B000643B9A4202D90548FFF73AFE2146A86920
:10D7C000BDE87040FEF7A4BC1819002030D506084B
:10D7D000134B1A6870B510689C691860A1684360A3
:10D7E0000126002082F820601D469A6184F82000FE
:10D7F0001B689A689142FBD35A68C4E900321460EE
:10D800005C60EFF30983E269643B9A4202D9054800
:10D81000FFF70EFE2146A869BDE87040FEF778BC10
:10D820001819002030D50608000000000000000094
:10D83000044B1A689B6992689B689A4200D87047AB
:10D84000FFF7C6BF1819002000000000000000000C
:10D85000044B9B6993F823300BB1FFF7B9BFFFF777
:10D8600087BF00BF18190020000000000000000062
:10D8700070B4114C41646569816002220421028404
:10D8800080F823100022012145610461C0E90F22C4
:10D890004262826100F12C0680F8221000F1300211
:10D8A000286100F150056061C662C561C164C0E9CC
:10D8B0000C2270BC704700BF181900200000000047
:10D8C000884203D200F8012B8142FBD1704700BF90
:10D8D000F0B4154E049D776964390144C160C1E913
:10D8E0001035124B0B66022304210384002382604F
:10D8F000426400F12C0580F823100122C0E90F33A7
:10D900004362836100F1500100F13003C0E9046714
:10D9100080F822203861C5627061C264C161C0E9CB
:10D920000C33F0BC704700BF1819002029C1000853
:10D93000F8B5064600F15005FF2400F8014B85427A
:10D94000FBD17518854206D904464FF0550C04F8F2
:10D9500001CBA542FBD172B664393144154C164F48
:10D960006569F1600B64069B4B6404230F664FF0FE
:10D97000020CB2600021726486F82330012206F1A5
:10D98000300306F12C07C6E90445A6F820C0C6E915
:10D990000F117162B16186F822202E61F061F76289
:10D9A000F264C6E90C3330466661FFF789FE62B661
:10D9B0003046F8BD1819002029C1000800000000F9
:10D9C00010B572B6074B9B695C6C9968A14201D097
:10D9D000814200D298605864FFF72AFF62B6204661
:10D9E00010BD00BF1819002000000000000000005A
:10D9F00072B690F8213043F0040380F8213062B60B
:10DA0000704700BF000000000000000000000000A0
:10DA100008B5014672B60820FFF72AFE62B608BDB7
:10DA200038B50F4B9C69E36AA06204F12C05AB4248
:10DA300007D01A68E2621846FFF7DAFDE36AAB42E4
:10DA4000F7D194F821309B0704D1D4E904231A615B
:10DA5000226953610F20BDE83840FFF7E1BD00BFE8
:10DA60001819002000000000000000000000000065
:10DA700072B6FFF7D5BF00BF000000000000000035
:10DA800038B5044672B690F820300F2B07D0074BFC
:10DA9000C26A9B6909201A60E362FFF7C1FDA56AAB
:10DAA00062B6204600F0C4F8284638BD1819002098
:10DAB00010B5054CA369036002469A620320FFF784
:10DAC000AFFDA369986A10BD18190020000000007E
:10DAD000054B02469B6921B1036003209A62FFF760
:10DAE000C7BD4FF0FF30704718190020000000003C
:10DAF00003682BB10022026018469962FFF778BDD7
:10DB0000704700BF0000000000000000000000009F
:10DB100069B1084B10B4024644689B690420C3E90C
:10DB20000024236053605DF8044BFFF7A1BD4FF064
:10DB3000FF307047181900200000000000000000AE
:10DB4000026890420AD010B414680460034663600F
:10DB5000104691625DF8044BFFF74ABD704700BF65
:10DB600038B5036898420BD004460D461A68226007
:10DB7000184654609D62FFF73BFD23689C42F5D137
:10DB800038BD00BF000000000000000000000000E1
:10DB9000014B5B6883607047001000E000000000EC
:10DBA0000E4B0F4A5B68C168F0B48468D2F880609D
:10DBB00042681B1BD0E904459B1BE61845F1000792
:10DBC0009342026888BF436001319342C0E9046711
:10DBD000C0E9023138BF0360F0BC7047001000E0BC
:10DBE00018190020000000000000000000000000E4
:10DBF00010B50D4C86B000234FF0FF31002268466F
:10DC0000C4F88030CDE9013303930023CDE9042328
:10DC10000091FFF7BDFF6846FFF7C2FF029BC4F803
:10DC2000803006B010BD00BF1819002000000000B1
:10DC3000014672B690F82230013BDBB280F8223008
:10DC400062B61BB990F820300F2B00D0704790F8C7
:10DC5000213003F00303012B02D0022B07D07047C1
:10DC6000D0E904231A610269536100F091BBD0E945
:10DC700004231A610269806C536100F0F9BB00BF94
:10DC800072B6044B186990F82230013380F82230C4
:10DC900062B6704718190020000000000000000064
:10DCA00010B572B6074B04699C421DBF94F8223030
:10DCB000013384F82230002462B6FFF7B9FF204612
:10DCC00010BD00BF18190020000000000000000077
:10DCD000C0E9000081607047000000000000000003
:10DCE00070B5856881600135002D0CDC04466FF04D
:10DCF00001066068436863601C60FFF779FC0135CA
:10DD0000012D8662F5D170BD00000000000000000A
:10DD100008B572B6FFF7E4FFFFF78AFD62B608BDEB
:10DD200072B68368013B002B836002DB002062B681
:10DD3000704710B5074C4168A26903469362C2E977
:10DD4000003105200A605A60FFF76AFCA369986AEF
:10DD500062B610BD1819002000000000000000008D
:10DD600072B68268531E002B836002DB002062B60D
:10DD7000704710B569B1094A4468926903469362D5
:10DD8000C2E90034052022605A60FFF771FC62B6D8
:10DD900010BD82604FF0FF30F9E700BF1819002076
:10DDA00008B572B683680133002B836001DD62B66B
